:100000000C949B070C94C3070C94C3070C94C30770
:100010000C94C3070C94C3070C94C3070C94C30738
:100020000C94C3070C94C3070C94C3070C94C30728
:100030000C94C3070C946A170C94C3070C94C30761
:100040000C94C8160C94C3070C9438170C94121710
:100050000C94C3070C94C3070C94C3070C94C307F8
:100060000C94C3070C94C30700000000003E5B4FD4
:100070005B3E3E6B4F6B3E1C3E7C3E1C183C7E3C08
:10008000181C577D571C1C5E7F5E1C00183C180016
:10009000FFE7C3E7FF0018241800FFE7DBE7FF30A6
:1000A000483A060E2629792926407F050507407F14
:1000B00005253F5A3CE73C5A7F3E1C1C08081C1C87
:1000C0003E7F14227F22145F5F005F5F06097F017D
:1000D0007F006689956A606060606094A2FFA29468
:1000E00008047E040810207E201008082A1C080836
:1000F0001C2A08081E101010100C1E0C1E0C303884
:100100003E3830060E3E0E06000000000000005F84
:1001100000000007000700147F147F14242A7F2AA0
:100120001223130864623649562050000807030062
:10013000001C2241000041221C002A1C7F1C2A08AE
:10014000083E080800807030000808080808000011
:1001500060600020100804023E5149453E00427F85
:10016000400072494949462141494D331814127FD4
:100170001027454545393C4A494931412111090774
:100180003649494936464949291E000014000000F5
:1001900040340000000814224114141414140041C7
:1001A00022140802015909063E415D594E7C121184
:1001B000127C7F494949363E414141227F414141BC
:1001C0003E7F494949417F090909013E4141517337
:1001D0007F0808087F00417F41002040413F017FA8
:1001E000081422417F404040407F021C027F7F0470
:1001F00008107F3E4141413E7F090909063E4151B9
:10020000215E7F09192946264949493203017F01A8
:10021000033F4040403F1F2040201F3F4038403FA9
:10022000631408146303047804036159494D4300BF
:100230007F4141410204081020004141417F0402F6
:10024000010204404040404000030708002054548D
:1002500078407F284444383844444428384444286B
:100260007F385454541800087E090218A4A49C78BE
:100270007F0804047800447D40002040403D007F1A
:100280001028440000417F40007C047804787C08FA
:100290000404783844444438FC18242418182424CE
:1002A00018FC7C08040408485454542404043F44B3
:1002B000243C4040207C1C2040201C3C4030403CE2
:1002C00044281028444C9090907C4464544C440042
:1002D00008364100000077000000413608000201A6
:1002E0000204023C2623263C1EA1A161123A404092
:1002F000207A38545455592155557941225454780F
:1003000042215554784020545579400C1E527212A7
:100310003955555559395454545939555454580030
:1003200000457C410002457D420001457C407D1234
:1003300011127DF0282528F07C5455450020545496
:100340007C547C0A097F4932494949323A44444441
:100350003A324A4848303A4141217A3A424020787C
:10036000009DA0A07D3D4242423D3D4040403D3C7D
:1003700024FF2424487E4943662B2FFC2F2BFF09A2
:1003800029F620C0887E0903205454794100004496
:100390007D413048484A32384040227A007A0A0A81
:1003A000727D0D19317D2629292F282629292926F4
:1003B00030484D4020380808080808080808382F39
:1003C00010C8ACBA2F102834FA00007B00000814C3
:1003D0002A142222142A14085500550055AA55AA99
:1003E00055AAFF55FF55FF000000FF00101010FF39
:1003F00000141414FF001010FF00FF1010F010F094
:10040000141414FC001414F700FF0000FF00FF1484
:1004100014F404FC141417101F10101F101F1414D0
:10042000141F00101010F0000000001F101010101A
:100430001F10101010F010000000FF10101010100E
:1004400010101010FF10000000FF140000FF00FF4C
:1004500000001F10170000FC04F4141417101714E8
:1004600014F404F40000FF00F7141414141414140A
:10047000F700F7141414171410101F101F1414147D
:10048000F4141010F010F000001F101F0000001FE7
:1004900014000000FC140000F010F01010FF10FF1A
:1004A000141414FF141010101F00000000F010FFAF
:1004B000FFFFFFFFF0F0F0F0F0FFFFFF0000000093
:1004C00000FFFF0F0F0F0F0F3844443844FC4A4A17
:1004D0004A347E02020606027E027E0263554941CC
:1004E000633844443C04407E201E2006027E020203
:1004F00099A5E7A5991C2A492A1C4C7201724C3017
:100500004A4D4D303048784830BC625A463D3E49ED
:100510004949007E0101017E2A2A2A2A2A44445F91
:10052000444440514A444040444A51400000FF0185
:1005300003E080FF000008086B6B08361236243693
:10054000060F090F060000181800000010100030F8
:1005500040FF0101001F01011E00191D1712003C80
:100560003C3C3C0000000000E339C8E84CE4F7AD37
:1005700068885EF494A52888529494A528E852943B
:10058000F7A5288B5EF4E4A5288FD2C084AD688CD3
:10059000D2A484B9CEE8529400000000000000000C
:1005A0000000FE000000000C0C0000C0FF00000076
:1005B000000C0C0000C0C3000000000C0C0000C0C8
:1005C000C3000000000C0C0000C0C3000000000CC1
:1005D0000C0000C0C3000000000C0C0000C0FF3085
:1005E000F0F0C3CC0C30F0C0FE30F0F0C3CC0C30D7
:1005F000F0C0C0CCCCCCC30C0CCCCCC0C0CCCCCCD0
:10060000C30C0CCCCCC0C0FCCCCCC3CCCCFCF0C05C
:10061000C0FCCCCCC3CCCCFCF0C0C0CCCCCCC30F89
:100620003CCCCC00C0CCCCCCC30F3CCCCC00C0CCA0
:10063000F0F0F3CC0CCCCCC0C0CCF0F0F3CC0CCCB4
:10064000CCC000000000000000000000000000001E
:10065000000000000000000000000000000000009A
:1006600000000000000000000000FFFFFC00FE0092
:100670003FFFFFC0FFFFF0D8FE1C1FFFFFC0FFFFC2
:10068000E1FC7F0F0FFFFFC0000007FE3F87C000A7
:10069000000000000FFE1FC7E000000000001FFF69
:1006A0001FC3F000000000003FF7FFE3F800000068
:1006B00000007FF98FFFFC0000000C00FFFF8FF1AE
:1006C000FE0000001E00EFFF0FF1FE0000001E0103
:1006D000DFFF8FF1FF0000000C83C3FF8FF1FF00ED
:1006E0000000004383FF8FF1FF800000020203F14E
:1006F000FFFFDF800000011621DFFFFFF780000011
:10070000008463F000001FC0000000446F00000080
:1007100003C0000000264780000003C00000000462
:100720000300000001E0000000050702FF8601E071
:10073000000000068E07FFEF01E000000007AE0F8B
:10074000BFFF01E030000007FE0E1FFF01E0780050
:100750000005FE1CCFFF01E078000000FF1DEFFF49
:1007600001E130000001FF0DF60701E20000000585
:10077000CF1DF77981C000000004071DF77981C8FB
:1007800080000006871D176581C100000003270E49
:10079000094501C200000003938E168301C40000C6
:1007A0000003830FF2FF018000000001C70FF9FF73
:1007B000018000000001CF0FFFFE0180000000005B
:1007C000FF0FFFFE018000000000FF1FFFFC818083
:1007D000000000007F1FFF7C4100000000007F1F21
:1007E000F8F82100000000007F1FFFF01200000059
:1007F00000003E0EFFE00C00000000001C0FFFC0D8
:10080000001000000000000F9F000000000000002A
:10081000000FFFC000040000031EA1EFFFC0000294
:10082000000007800703FFDE0601000007800800C4
:1008300000010F1080000307100007F89F800000E0
:10084000000000003F103DC40000000020004020D8
:10085000FCC26000000020008143FC40F00000006A
:100860004000FF83FCC0F000000040000003F8C01F
:100870006000000040FF0003F3800000000043FF21
:10088000800380000000000087FF8000010000005E
:1008900000008FFFF0000100000000009FFFF0004B
:1008A0000100000000009FFFF01F1E00000000007C
:1008B000FFFFE03F3E0000000000000000000000DD
:1008C0000000FE0000000000000000C0FF0000006B
:1008D0000000000000C0C30000000000000000C0D5
:1008E000C30000000000000000C0C30000000000C2
:1008F000000000C0C3000003F80FE007F8C0FF8C41
:100900000C7FF80FE7E7F8C0FFCC0CFF18FC67E698
:1009100018C0C0CC0CC319FC660618C0C0CC0CC3F0
:10092000198C660678C0C0CC0CC3198C6707F0C060
:10093000C0CC0CC019806707C0C0C0CC0CC01980E7
:1009400066066000C0CC0CC0198066063000FFCF80
:10095000FCC0198067E61CC0FF87FCC0198067E6F1
:100960000CC00000000000000000000000000000BB
:100970000000000000000000000000000000000077
:1009800000000000000000000000FFFFFFFFFFFF6D
:10099000FFFFFFC0FFFFFFFFFFFFFFFFFFC0FFFFE5
:1009A000FFFFFFFFFFFFFFC000000000000000008E
:1009B0000000000000000000000000000000000037
:1009C0000000000000000000000000000000000027
:1009D00000000000003E0C000000000180000C3E02
:1009E0001F0000000003C000387C3FC0000000036F
:1009F000C000787C3FE0000000019000F0F83FF07C
:100A0000000000000801FFFFFFF8000000004003A5
:100A1000F0F87FFC000000002203F0F87FFE0000E9
:100A200000001007F0F87FFE000000000807F0F853
:100A30007FF8000000000407F0F87FF400000000D9
:100A4000000FF0F87FF100000000010FC0007FF4FC
:100A500000000000008F80000FF800000000004F31
:100A600007E3C7FA00000000000F0EF773F800005C
:100A70000000054E087C3BFD00000000000E0F3F0B
:100A800099FC00000000004E097CBDFC0000000045
:100A9000000E087C3DFD00000000008E0CCE7DFCA9
:100AA00000000000010E07B7FDFE00000000020676
:100AB0000F8FFDF60000060004060FEFFDE30000B7
:100AC0000F00000607FFFDE300000F00100607FF00
:100AD000FDE20000060020060783FDE200000000A2
:100AE000004307007DF60000000000430B7F7CFE02
:100AF00000000900014391FFFCFC0000090004F123
:100B0000E1FFF87C000001000AC000FFE0380000AF
:100B10000100094000001000000009004500037FAB
:100B2000F600000000034300045FF100000001052F
:100B30002800185FF0C0000000023000301FC070B5
:100B4000000001010000C000000800000900800151
:100B5000000000040000010000020000000200008C
:100B60000100000601000001000000000004010077
:100B7000080080000100000C02800C0080000100D1
:100B800000080200080040000100001804000800EE
:100B9000400001000010040003702000010000105C
:100BA000000007FC2000000000100FF807FE2000E6
:100BB000010000101FFFE7FE6000000000103FFF73
:100BC0001FFE200000000011BFF0FFFE200000000B
:100BD0000016AFEFFFF9E000000000000000000089
:100BE0000000C00060000000000000C0C000600005
:100BF0000000000000C0C00063000000000000C052
:100C0000C00063000000000000C0C00060000000E1
:100C1000000000C0C00060000000000FF0C0C04035
:100C2000633FF1FF8FCFF0C0C0E0633FF9FFCFCC4F
:100C300030C0C1F0631818C0CC0C30C0C3B8631802
:100C400018C0CC0CF0C0C71C631818C0CE0FE0C091
:100C5000CE0E631818C0CE0F80C0DC07631818C012
:100C6000CC0CC000F803E31818C0CC0C6000F001F5
:100C7000E31818C0CFCC38C0E000E31818C0CFCCC0
:100C800018C000000000000000000000000000008C
:100C90000000000000000000000000000000000054
:100CA00000000000000000000000FFFFFC00FE004C
:100CB0003FFFFFC0FFFFF0D8FE1C1FFFFFC0FFFF7C
:100CC000E1FC7F0F0FFFFFC0000007FE3F87C00061
:100CD000000000000FFE1FC7E000000000001FFF23
:100CE0001FC3F000000000003FF7FFE3F800000022
:100CF00000007FF98FFFFC0000000C00FFFF8FF168
:100D0000FE0030001E00EFFF0FF1FE0078001E0114
:100D1000DFFF8FF1FF0078000C83C3FF8FF1FF012D
:100D20003000004383FF8FF1FF820000020203F1D5
:100D3000FFFFDF800000011621DFFFFFF788800042
:100D4000008463F000001FC1000000446F00000039
:100D500003C2000000264780000003C40000000416
:100D60000300000001E0000000050702FF8601E02B
:100D7000000000068E07FFEF01E000000007AE0F45
:100D8000BFFF01E000000007FE0E1FFF01E00000B2
:100D90000005FE1CCFFF01E000000000FF1DEFFF7B
:100DA00001E000000001FF0DF7FF01E00000000579
:100DB000CF1DF7F781C000000004071DF78F81C029
:100DC00000000006871D17FB81C000000003270EEE
:100DD000090701C000000003938E16FF01C0000048
:100DE0000003830FF2FF018000000001C70FF9FF2D
:100DF000018000000001CF0FFFFE01800000000015
:100E0000FF0FFFFE018000000000FF1F7FFC8180BC
:100E1000000000007F1FBF7C4100000000007F1F1A
:100E2000C0F82100000000007F1FFFF0120000004A
:100E300000003E0EFFE00C00000000001C0FFFC091
:100E4000000000000000000F9FC000000000000034
:100E5000000FFFC000040000000001EFFFC000020F
:100E6000000000020703FFCC00010000000448005E
:100E7000FFD90000800000089000001880000000EA
:100E800000010000001C6004000000222000000C93
:100E9000100260000044200001EF0800F000000094
:100EA000400003FF0400F00003004008003F000082
:100EB00060000780401003FF020000000780402010
:100EC00000077E0000000300802001FF7F0000007B
:100ED0000000802000017F8000000000FFC000FEB5
:100EE000FF8000000000FFFE0000FF800000000007
:100EF000FFFFC007FF800000000000002500280061
:100F00002B0000000000240027002A000404040431
:100F100004040404020202020202030303030303A3
:100F20000102040810204080010204081020010280
:100F300004081020911711241FBECFEFD8E0DEBFA8
:100F4000CDBF11E0A0E0B1E0E2E1F1E402C0059024
:100F50000D92AA32B107D9F722E0AAE2B1E001C0AE
:100F60001D92AD32B207E1F717E0CBE9D7E004C03C
:100F70002197FE010E945C1FCA39D107C9F70E9460
:100F8000E6170C9487200C9400008F929F92AF92EA
:100F9000BF92CF92DF92EF92FF92CF93DF937C01CB
:100FA000C0916001D0916101C63081E0D80709F09D
:100FB00063C060915B0170915C0180915D019091D3
:100FC0005E010E94381E23E333E34EE752E40E94A1
:100FD000EF1E20E030E043E853E40E94EF1E20E0E3
:100FE00030E04AE754E40E94901D0E94091E9B01D4
:100FF000AC01DA01C9018E0D9F1DA11DB11D6C014F
:101000007D0188EE882E83E0982EA12CB12CC6306D
:1010100091E0D90709F043C060915B0170915C01D8
:1010200080915D0190915E010E94381E23E333E3BD
:101030004EE752E40E94EF1E20E030E043E853E424
:101040000E94EF1E20E030E04AE754E40E94901D29
:101050000E94091E9B01AC012C153D054E055F0544
:10106000B0F2DF91CF91FF90EF90DF90CF90BF90E3
:10107000AF909F908F90089520915B0130915C011B
:1010800040915D0150915E01A0E0BEE40E94DA1C37
:1010900028EE33E040E050E00E94ED1CAACF209102
:1010A0005B0130915C0140915D0150915E01A0E0D7
:1010B000BEE40E94DA1CA50194010E94ED1CCCCF75
:1010C0000F93CF93DF93E9E5F1E0A785B089C09155
:1010D0002E01D0912F018285AC0FBD1F0BB10F7770
:1010E00003C000FA07F90BB90D90000007FA07F9E1
:1010F0000BB900000000000006FA07F90BB9000068
:101100000000000005FA07F90BB90000000000001C
:1011100004FA07F90BB900000000000003FA07F910
:101120000BB900000000000002FA07F90BB900003B
:101130000000000001FA07F90BB98A9591F600004A
:10114000000000FA07F90BB90BB10F7707FB07F99D
:101150000BB9DF91CF910F9108950F93CF93DF9348
:10116000E9E5F1E0A785B089C0912E01D0912F016A
:101170008285AC0FBD1F0BB10F7703C000FA07F9D2
:101180000BB90D9007FA07F90BB90000000006FA39
:1011900007F90BB90000000005FA07F90BB90000C8
:1011A000000004FA07F90BB90000000003FA07F980
:1011B0000BB90000000002FA07F90BB900008A958C
:1011C00001FA07F90BB9D1F6000000FA07F90BB9DB
:1011D0000BB10F7707FB07F90BB9DF91CF910F9197
:1011E00008950F93CF93DF93E9E5F1E0A785B089E8
:1011F000C0912E01D0912F018285AC0FBD1F02C07E
:10120000000C0BB80D9000000BB800000000000CA3
:101210000BB800000000000C0BB800000000000C30
:101220000BB800000000000C0BB800000000000C20
:101230000BB80000000C8A950BB811F70000000CE9
:101240000BB80000000000005F98DF91CF910F9174
:1012500008950F93CF93DF93E9E5F1E0A785B08977
:10126000C0912E01D0912F018285AC0FBD1F8E3110
:1012700091F08D3151F08C3149F08B3141F08A3150
:1012800039F0893131F0883129F01CC032C048C0B2
:101290005EC074C08AC00D900BB80000000C0BB883
:1012A0000000000C0BB80000000C0BB80000000C94
:1012B0000BB80000000C0BB80000000C0BB80000CD
:1012C000000C0BB80D900BB80000000C0BB8000020
:1012D000000C0BB80000000C0BB80000000C0BB8A1
:1012E0000000000C0BB80000000C0BB80000000C54
:1012F0000BB80D900BB80000000C0BB80000000CF0
:101300000BB80000000C0BB80000000C0BB800007C
:10131000000C0BB80000000C0BB80000000C0BB860
:101320000D900BB80000000C0BB80000000C0BB8BF
:101330000000000C0BB80000000C0BB80000000C03
:101340000BB80000000C0BB80000000C0BB80D909F
:101350000BB80000000C0BB80000000C0BB800002C
:10136000000C0BB80000000C0BB80000000C0BB810
:101370000000000C0BB80000000C0BB80D900BB86F
:101380000000000C0BB80000000C0BB80000000CB3
:101390000BB80000000C0BB80000000C0BB80000EC
:1013A000000C0BB80000000C0BB80D900BB800003F
:1013B000000C0BB80000000C0BB80000000C0BB8C0
:1013C0000000000C0BB80000000C0BB80000000C73
:1013D0000BB80000000C0BB80D900BB80000000C0F
:1013E0000BB80000000C0BB80000000C0BB800009C
:1013F000000C0BB80000000C0BB80000000C0BB880
:101400000000000C0BB80D900BB80000000C0BB8DE
:101410000000000C0BB80000000C0BB80000000C22
:101420000BB80000000C0BB80000000C0BB800005B
:10143000000C0BB80D900BB80000000C0BB80000AE
:10144000000C0BB80000000C0BB80000000C0BB82F
:101450000000000C0BB80000000C0BB80000000CE2
:101460000BB80D900BB80000000C0BB80000000C7E
:101470000BB80000000C0BB80000000C0BB800000B
:10148000000C0BB80000000C0BB80000000C0BB8EF
:101490000D900BB80000000C0BB80000000C0BB84E
:1014A0000000000C0BB80000000C0BB80000000C92
:1014B0000BB80000000C0BB80000000C0BB80D902E
:1014C0000BB80000000C0BB80000000C0BB80000BB
:1014D000000C0BB80000000C0BB80000000C0BB89F
:1014E0000000000C0BB80000000C0BB80D900BB8FE
:1014F0000000000C0BB80000000C0BB80000000C42
:101500000BB80000000C0BB80000000C0BB800007A
:10151000000C0BB80000000C0BB80D900BB80000CD
:10152000000C0BB80000000C0BB80000000C0BB84E
:101530000000000C0BB80000000C0BB80000000C01
:101540000BB80000000C0BB80D900BB80000000C9D
:101550000BB80000000C0BB80000000C0BB800002A
:10156000000C0BB80000000C0BB80000000C0BB80E
:101570000000000C0BB80D900BB80000000C0BB86D
:101580000000000C0BB80000000C0BB80000000CB1
:101590000BB80000000C0BB80000000C0BB80000EA
:1015A000000C0BB80D900BB80000000C0BB800003D
:1015B000000C0BB80000000C0BB80000000C0BB8BE
:1015C0000000000C0BB80000000C0BB80000000C71
:1015D0000BB80D900BB80000000C0BB80000000C0D
:1015E0000BB80000000C0BB80000000C0BB800009A
:1015F000000C0BB80000000C0BB80000000C0BB87E
:101600000D900BB80000000C0BB80000000C0BB8DC
:101610000000000C0BB80000000C0BB80000000C20
:101620000BB80000000C0BB80000000C0BB80D90BC
:101630000BB80000000C0BB80000000C0BB8000049
:10164000000C0BB80000000C0BB80000000C0BB82D
:101650000000000C0BB80000000C0BB80D900BB88C
:101660000000000C0BB80000000C0BB80000000CD0
:101670000BB80000000C0BB80000000C0BB8000009
:10168000000C0BB80000000C0BB80D900BB800005C
:10169000000C0BB80000000C0BB80000000C0BB8DD
:1016A0000000000C0BB80000000C0BB80000000C90
:1016B0000BB80000000C0BB80D900BB80000000C2C
:1016C0000BB80000000C0BB80000000C0BB80000B9
:1016D000000C0BB80000000C0BB80000000C0BB89D
:1016E0000000000C0BB80D900BB80000000C0BB8FC
:1016F0000000000C0BB80000000C0BB80000000C40
:101700000BB80000000C0BB80000000C0BB8000078
:10171000000C0BB80D900BB80000000C0BB80000CB
:10172000000C0BB80000000C0BB80000000C0BB84C
:101730000000000C0BB80000000C0BB80000000CFF
:101740000BB80D900BB80000000C0BB80000000C9B
:101750000BB80000000C0BB80000000C0BB8000028
:10176000000C0BB80000000C0BB80000000C0BB80C
:101770000D900BB80000000C0BB80000000C0BB86B
:101780000000000C0BB80000000C0BB80000000CAF
:101790000BB80000000C0BB80000000C0BB80D904B
:1017A0000BB80000000C0BB80000000C0BB80000D8
:1017B000000C0BB80000000C0BB80000000C0BB8BC
:1017C0000000000C0BB80000000C0BB80D900BB81B
:1017D0000000000C0BB80000000C0BB80000000C5F
:1017E0000BB80000000C0BB80000000C0BB8000098
:1017F000000C0BB80000000C0BB8000000005F9854
:10180000DF91CF910F9108952091590130915A01A4
:101810008091600190916101281739070CF457C03D
:101820008CEA93E0909389008093880010925A018B
:101830001092590180915B0190915C01A0915D0132
:10184000B0915E010196A11DB11D80935B01909343
:101850005C01A0935D01B0935E0180912A0190919B
:101860002B01A0912C01B0912D01892B8A2B8B2B60
:1018700051F180912A0190912B01A0912C01B091FE
:101880002D01181619061A061B069CF480912A01D0
:1018900090912B01A0912C01B0912D010197A109EC
:1018A000B10980932A0190932B01A0932C01B0934E
:1018B0002D018091590190915A01019690935A01FE
:1018C0008093590108951092B1002B98F2CF209186
:1018D000590130915A0180916701082E000C990B33
:1018E0002817390731F78AE490E0909389008093B4
:1018F00088008DE89DE09093310180933001D9CF2D
:10190000AF92BF92CF92DF92EF92FF920F931F930D
:10191000CF93DF936C017B018B01040F151FEB014B
:101920005E01AE18BF08C017D10759F06991D60102
:10193000ED91FC910190F081E02DC6010995892B74
:1019400079F7C501DF91CF911F910F91FF90EF9033
:10195000DF90CF90BF90AF900895FC01538D448DE0
:10196000252F30E0842F90E0821B930B541710F04A
:10197000CF96089501970895FC01918D828D981757
:1019800061F0A28DAE0FBF2FB11D5D968C91928D2F
:101990009F5F9F73928F90E008958FEF9FEF089560
:1019A000FC01918D828D981731F0828DE80FF11D29
:1019B000858D90E008958FEF9FEF0895FC01918D44
:1019C000228D892F90E0805C9F4F821B91098F733D
:1019D0009927089580E791E00E94DE0C21E0892B91
:1019E00009F420E0822F089580E090E0892B29F00F
:1019F0000E94EA0C81110C9400000895FC01A48D52
:101A0000A80FB92FB11DA35ABF4F2C91848D90E020
:101A100001968F739927848FA689B7892C93A08903
:101A2000B1898C91837080648C93938D848D98138D
:101A300006C00288F389E02D80818F7D8083089520
:101A4000EF92FF920F931F93CF93DF93EC0181E00E
:101A5000888F9B8D8C8D98131AC0E889F9898081B5
:101A600085FF15C09FB7F894EE89FF896083E889E8
:101A7000F98980818370806480839FBF81E090E0DA
:101A8000DF91CF911F910F91FF90EF900895F62E67
:101A90000B8D10E00F5F1F4F0F731127E02E8C8D01
:101AA0008E110CC00FB607FCFACFE889F989808146
:101AB00085FFF5CFCE010E94FE0CF1CFEB8DEC0F30
:101AC000FD2FF11DE35AFF4FF0829FB7F8940B8F63
:101AD000EA89FB8980818062CFCFCF93DF93EC01CD
:101AE000888D8823B9F0AA89BB89E889F9898C9106
:101AF00085FD03C0808186FD0DC00FB607FCF7CFC2
:101B00008C9185FFF2CF808185FFEDCFCE010E94C1
:101B1000FE0CE9CFDF91CF9108958091590190910A
:101B20005A0120915F0128171906C1F410922F0164
:101B300010922E0180916501809366018CEB9DE0EF
:101B400090933101809330018091590190915A0115
:101B5000019690935A01809359010895209159015B
:101B600030915A01809160019091610128173907E5
:101B700059F784E09CE0E4CF309184002091640127
:101B80002A50231B2350F0F72D5F19F02A9511F0EE
:101B900001C00000E0913201F0913301099590916C
:101BA000660180916501911138C080936601209192
:101BB000630140912E0150912F01240F352F311DCB
:101BC00030932F0120932E012091590130915A0119
:101BD0002F5F3F4F082E000C990B01966091620118
:101BE000689FA001699F500D112480915F01840FAF
:101BF000952F911D2817390731F48DE89DE09093BA
:101C00003101809330018091590190915A010196E0
:101C100090935A01809359010895915090936601D1
:101C2000D3CF08954F925F926F927F928F929F923F
:101C3000AF92BF92CF92DF92EF92FF922C014A01B6
:101C40005B011092B0001092B1009091B0009260D0
:101C50009093B0009091B10091609093B100239A5D
:101C6000712C612C60E970ED83E090E0A30192019A
:101C70000E94BB1C69017A0181E0C81AD108E10801
:101C8000F1088FEFC816D104E104F10409F00CF457
:101C90008CC068E478EE81E090E0A30192010E949C
:101CA000BB1C69017A0181E0C81AD108E108F1087A
:101CB0008FEFC816D104E104F10409F084F584E043
:101CC0008093B100ACE3B0E0A50194010E94DA1C5E
:101CD00028EE33E040E050E00E94ED1C20932A0102
:101CE00030932B0140932C0150932D01C092B300EF
:101CF0008091B0008F778093B0008091B0008064B5
:101D00008093B000FF90EF90DF90CF90BF90AF90A6
:101D10009F908F907F906F905F904F90089564E2B6
:101D200074EF80E090E0A30192010E94BB1C690166
:101D30007A0181E0C81AD108E108F1088FEFC816CE
:101D4000D104E104F10499F194F162E17AE780E0D1
:101D500090E0A30192010E94BB1C69017A0181E01D
:101D6000C81AD108E108F1088FEFC816D104E104C0
:101D7000F10409F014F486E0A3CF60E072E18AE791
:101D800090E0A30192010E94BB1C69017A018AE0E4
:101D9000F594E794D794C7948A95D1F781E0C81A4F
:101DA000D108E108F10887E08BCF83E089CF85E097
:101DB00087CFCF93DF93BC01990F880B990B0E94BB
:101DC0003A1E9B01AC0160914201709143018091E8
:101DD0004401909145010E941E1D20E030E040E842
:101DE00050E40E941F1D0E94021EEB016150710908
:101DF0006F307105C8F58091380190913901A0913B
:101E00003A01B0913B01B058809338019093390169
:101E1000A0933A01B0933B0144E650E060E070E0EB
:101E200080EB94E00E94120E80E090E0A0E0BFEB17
:101E3000C430D1058CF080E090E0A0E8BEEBC83063
:101E4000D10554F080E090E0A0E8BEE32C9724F0A8
:101E500080E090E0A0E0BFE380933C0190933D01DF
:101E6000A0933E01B0933F01DF91CF910895CF93AE
:101E7000DF938091630198E0899FF00111246E1730
:101E80001F060CF04DC090916201491708F048C040
:101E9000E62FE695E695E695849FA0011124C09172
:101EA0006801D0916901DE01AE0FB11DA40FB51F0D
:101EB0008C9190E06770A0E8B0E0062E02C0B59566
:101EC000A7950A94E2F78A239B23892BB9F0213046
:101ED00039F116C0211109C02FE73FEF02C0359537
:101EE00027956A95E2F782231AC020E830E002C005
:101EF000359527956A95E2F7822711C0222381F054
:101F00004E0F511DC40FD51F8881213019F720E8CD
:101F100030E002C0359527956A95E2F7822B8883D9
:101F2000DF91CF9108950F931F93CF93DF93EC012F
:101F3000162F042F233049F0EC89FD89309729F0C2
:101F40002E3F41F42889233051F5DF91CF911F9125
:101F50000F9108952F3F51F42989F5CF8F3FF1F468
:101F600088891CC080E01AC081E018C02230B9F412
:101F7000EA89FB8983E0309721F0402F612FCE0161
:101F800009959EEF980F923000F3EC89FD8981301E
:101F900049F3882349F38E3F09F78989282F402F79
:101FA000612FCE01DF91CF911F910F910994EF9294
:101FB000FF920F931F93CF93DF937C01142FC62FB3
:101FC000C20F6C1769F0F7018481681748F4D1E0FB
:101FD000D60F202F412FC7010E94930F6D2FF1CFF5
:101FE000DF91CF911F910F91FF90EF900895DF92B5
:101FF000EF92FF920F931F93CF93DF93182FC62F6B
:10200000F22E481710F4142F482FFC1618F48C2FBA
:10201000CF2DF82ED1E0D40FFC16D8F0DD24D394C8
:10202000DC0E80911202C81790F4612F6D1779F0C1
:1020300080911102681758F4EE24E394E60E202FE5
:102040004C2F8DE092E00E94930F6E2DEFCFCD2D9F
:10205000E3CFDF91CF911F910F91FF90EF90DF9031
:1020600008953F924F925F926F927F928F929F92CC
:10207000AF92BF92CF92DF92EF92FF920F931F9396
:10208000CF93DF934C01462E542EE22EF12C3701D4
:1020900087E0680E711C93E0759467949A95E1F758
:1020A000D12CC12CB12CA12C10E0A016B10644F506
:1020B000D0E0C0E0CE0187709927330C892B59F40A
:1020C000FE0183E0F595E7958A95E1F7EC0DFD1D9E
:1020D000E80DF91D34902EEF37FE2FEF6C2F640DB5
:1020E000452D8DE092E00E94930F2196CE15DF05DD
:1020F0000CF38FEFA81AB80A5394C60CD71CD5CF8F
:10210000DF91CF911F910F91FF90EF90DF90CF90D3
:10211000BF90AF909F908F907F906F905F904F9007
:102120003F900895EF92FF920F931F93CF93DF9309
:102130007C01162FC42FC20F4C1769F0F70185815F
:10214000481748F4D1E0D40F202F612FC7010E9417
:10215000930F4D2FF1CFDF91CF911F910F91FF90F2
:10216000EF9008952F923F924F925F926F927F92DD
:102170008F929F92AF92BF92CF92DF92EF92FF9297
:102180000F931F93CF93DF93CDB7DEB72F970FB683
:10219000F894DEBF0FBECDBF1C016F874E87122F94
:1021A000E98640132DC0261710F42F87162FD10172
:1021B00015968C91BE85B81750F421E0210FEF855C
:1021C0002E1B09854B2F6E2FC1010E94D70F2F9612
:1021D0000FB6F894DEBF0FBECDBFDF91CF911F9138
:1021E0000F91FF90EF90DF90CF90BF90AF909F90B6
:1021F0008F907F906F905F904F903F902F900895B9
:10220000FF85F21316C02E85021710F40E87022FD9
:10221000D10114968C91BF85B817C8F60F5F202F97
:10222000EE852E1B09854E2F6B2FC1010E94921047
:10223000CECF822FAF858A1B990BBC01072E000CD5
:10224000880B990B0E943A1E4B015C01E02F2E85F2
:10225000E21BFF0BBF01072E000C880B990B0E949D
:102260003A1E6B017C0120E030E0A901C501B401F8
:102270000E94EA1E18160CF43DC0D501C401B058E6
:102280008D839E83AF83B88720E030E0A901C7012A
:10229000B6010E94EA1E18160CF4DFC0D701C60171
:1022A000B05889839A83AB83BC832D813E814F8153
:1022B0005885BC01CD010E948B1D18160CF0DCC0A6
:1022C00020E030E0A901C701B6010E94EA1E87FFA5
:1022D00004C08E850E87082F1F87EE850E1708F025
:1022E0004EC0FE85F01708F472CFF11144C0011101
:1022F000F8CF6DCF8D829E82AF82B886C5CF20E0A9
:1023000030E0A901C501B4010E948B1D87FF09C0FF
:1023100020E030E0A901C701B6010E948B1D87FDB6
:1023200012C020E030E0A901C501B4010E94EA1EFC
:102330001816ECF420E030E0A901C701B6010E94B4
:10234000EA1E1816A4F4AE85AF5FAE872D813E81DC
:102350004F81588569817A818B819C810E941E1DE5
:102360009B01AC010E941F1D9B01AC01BFC0BE853B
:10237000B150BE87EBCF2E8521502E87B2CF2D8155
:102380003E814F815885CA01B9010E941F1D6A878D
:102390007B878C879D8729813A814B815C810E9454
:1023A0001E1D2B013C0129854E856F85C1010E94B0
:1023B000930F8E85081709F40ACF8F5F8E8720E070
:1023C00030E0A901C301B2010E948B1D18164CF028
:1023D0002A853B854C855D85C301B2010E941F1D86
:1023E000E0CF20E030E0A901C501B4010E948B1DBF
:1023F00087FF09C020E030E0A901C701B6010E94B3
:102400008B1D87FD12C020E030E0A901C501B40199
:102410000E94EA1E1816ECF420E030E0A901C70182
:10242000B6010E94EA1E1816A4F49F859F5F9F873D
:1024300029813A814B815C816D817E818F81988574
:102440000E941E1D9B01AC010E941F1D9B01AC013F
:10245000C3CFAF85A150AF87EBCF2D813E814F8198
:102460005885C701B6010E948B1DC982DA82EB82B2
:10247000FC8218160CF431CF20E030E0A901C50130
:10248000B4010E94EA1E87FF04C00E878F851F8754
:10249000182F29813A814B815C81CA01B9010E94C0
:1024A0001F1D6A877B878C879D872D813E814F8189
:1024B00058850E941E1D2B013C0129854E856F8584
:1024C000C1010E94930F9F85911708F080CE9F5FF6
:1024D0009F8720E030E0A901C301B2010E948B1D5B
:1024E00087FF0DCF2A853B854C855D85C301B201F1
:1024F0000E941F1DE0CFEF920F93FC01E18883E063
:10250000E81201C0E12C45858781480F4150838541
:10251000480F64852681260F042FCF010E94B21038
:102520000F91EF9008950F93209112022150409146
:102530001102415000E060E080E00E94F70F8091BE
:102540001C02882321F08DE092E00E947B12809192
:10255000110290911302891B990B01971816190605
:102560000CF480E08093190280911C02882321F0F2
:102570008DE092E00E947B128091120290911402F1
:10258000891B990B0197181619060CF480E08093AB
:102590001A02E0912702F0912802309721F08DE095
:1025A00092E00F9109940F9108951F93CF93DF93B9
:1025B000EC01162F8F85882319F0CE010E947B1223
:1025C0008E816C85680F610F9A85690F6C87680F23
:1025D0007727771F8C8186171706ACF41C868F85AA
:1025E000882319F0CE010E947B129F818D85890F6F
:1025F0002B85820F8D87890F9927991F2D81281789
:1026000019060CF41D86DF91CF911F9108952F922A
:102610003F924F925F926F927F928F929F92AF9272
:10262000BF92CF92DF92EF92FF920F931F93CF93BF
:10263000DF93CDB7DEB760970FB6F894DEBF0FBE5D
:10264000CDBF6D30F9F0F62E8C012AE0621335C053
:10265000DC011F968C91882319F0C8010E947B121F
:10266000F80197818585890F2385820F8587890FDA
:102670009927991F2581281719060CF41586D8016A
:102680001C961C9281E090E060960FB6F894DEBF35
:102690000FBECDBFDF91CF911F910F91FF90EF90B3
:1026A000DF90CF90BF90AF909F908F907F906F9072
:1026B0005F904F903F902F90089581E08983D801DB
:1026C0005696ED91FC91309789F4B0E2FB1216C05A
:1026D000F8018685882391F08981882309F4EDC06B
:1026E00060856195C8010E94D512CCCFAE014F5FC5
:1026F0005F4FC8010995882341F3C4CFF8013680A4
:10270000E78085E0F89E900111243D832C8395E0BD
:10271000931520F0A8E0AE1508F0D3C0B981B887B2
:10272000632D70E090E080E00E94381E9B01AC01B8
:1027300060E070E080EA90E40E94901D69877A87EB
:102740008B879C876E2D70E090E080E00E94381EA1
:102750009B01AC0160E070E080E091E40E94901D7C
:102760002B013C01E4E0EB83C12CD12C50E8E52E99
:1027700050E4F52E3A94FFEF3F1609F49BC03B81DD
:10278000232F30E03F832E83D8011C968C911C9719
:10279000830D9927991F14962C91149728171906C1
:1027A00009F00CF466C0EE81FF812C813D81E20FBF
:1027B000F31FE859FF4FE49117962C90B7E0BA83C6
:1027C000812C912C40EEA42E40E4B42E2E2F30E02C
:1027D000388B2F872A943FEF231609F44AC0D8017B
:1027E0001D964C911D97FA81EF2FF0E0FE87ED8743
:1027F000242F220D3327331FC90115962C911597CD
:1028000028171906A1F09CF08F8598890A8002C0CC
:10281000959587950A94E2F780FF28C050962C91F1
:10282000420DF8016485630DC8010E94930FA30156
:102830009201C501B4010E941E1D4B015C016D8512
:102840007E8561507109072E000C880B990B0E9440
:102850003A1E9B01AC01C501B4010E948B1D1816E4
:102860000CF4B8CFFA81F150FA83B4CF51962C9181
:10287000D7CF29853A854B855C85C701B6010E9473
:102880001E1D6B017C016E817F8161507109072ED5
:10289000000C880B990B0E943A1E9B01AC01C701EA
:1028A000B6010E948B1D18160CF464CF2B812150A9
:1028B0002B8360CF3885311156C0D8011A966C91A0
:1028C00010CFB5E03B1206C0E8E095E0D92EEE1639
:1028D00009F44BC09980A12C35E0E32EEA94FFEF78
:1028E000EF1609F43DC021E0E21206C031E3F31611
:1028F00049F0AA24A39406C084E0E81203C091E33F
:10290000F916B9F3EC81FD81EE0DF11DE859FF4F89
:10291000E49128E0B22ECE2ED12CBA94AFEFBA16A5
:10292000E9F241E0B3E0BB1508F440E0C6010B2C2E
:1029300002C0959587950A94E2F780FF0DC0F801D3
:1029400020894B0DF8018585480F64856E0D6A0D51
:10295000C8010E94930FE1CFD80151962C91F1CF7D
:10296000992009F4AACF60E0BDCEDA94BFEFDB1660
:1029700051F1EC81FD81ED0DF11DE859FF4FE4911E
:1029800088E0C82EEE2EF12CCA94EFEFCE1669F334
:10299000C7010C2C02C0959587950A94E2F780FF39
:1029A0000FC0D80150962C91D8011D964C911D97BF
:1029B0004C0D1C966C916D0DC8010E94930FE4CFD5
:1029C000F8012189F1CF89818111CDCFF80162858C
:1029D00088CE089590E080E008958F929F92AF9204
:1029E000BF920F931F93CF93DF93CDB7DEB7A1971D
:1029F0000FB6F894DEBF0FBECDBF19A2423008F467
:102A00004AE08E010F5D1F4F842E912CB12CA12C1A
:102A1000A50194010E94ED1CE62FB901CA01EA301C
:102A200044F5E05DD801EE938D01232B242B252B5B
:102A300079F790E080E0109769F0FD0101900020A7
:102A4000E9F73197AF014A1B5B0BBD018DE092E0C6
:102A50000E94800CA1960FB6F894DEBF0FBECDBFCA
:102A6000DF91CF911F910F91BF90AF909F908F906A
:102A70000895E95CD7CF41E050E068E271E08DE075
:102A800092E00C94800CCF92DF92EF92FF92CF9362
:102A9000DF936C01990FEE08FF08F7FE19C06DE295
:102AA0008DE092E00E940713EC0166277727CB01A7
:102AB0006C197D098E099F094AE00E94ED148C0F64
:102AC0009D1FDF91CF91FF90EF90DF90CF90089501
:102AD0004AE0C701B601DF91CF91FF90EF90DF9000
:102AE000CF900C94ED140F93CF938091340190917B
:102AF0003501C8E50A973CF08091170290911302C6
:102B0000890FC8E5C81B00E029E04DE062E081E0E4
:102B10000E94F70F29E04CE04C0F62E08C2F0E94DE
:102B2000F70F809136019091370130911102209179
:102B30001202009739F582E0333008F480E0809388
:102B4000190282E0233008F480E080931A020E9488
:102B50003B15809134019091350130911102209103
:102B60001202009701F5C31708F0C0E0C0931902E4
:102B700082E0233008F480E080931A02CF910F9115
:102B80000C943B15333058F032E030931902233067
:102B900040F022E020931A020E944315DACF30E081
:102BA000F4CF20E0F7CFC31708F0C0E0C0931902BC
:102BB000233038F022E020931A02CF910F910C9429
:102BC000431520E0F8CFCF92DF92EF92FF920F9360
:102BD00001E02BE344E665E180E00E94F70F00E5A9
:102BE0002AE440E06DE088E995E00E94311088E831
:102BF00093E10E94C50710924F0110924E0180E0B0
:102C000090E0ACE2B2E480934A0190934B01A09330
:102C10004C01B0934D011092370110923601109281
:102C2000350110923401109241011092400180E070
:102C300090E0A0E4B2E48093420190934301A0931A
:102C40004401B093450180E090E0A8E2B2E48093B3
:102C5000460190934701A0934801B093490180E059
:102C600090E0A0E0BFE380933C0190933D01A093EE
:102C70003E01B0933F0180E090E0A0E0BFEB809385
:102C8000380190933901A0933A01B0933B010E941F
:102C90009312EE24E3940AE024E64AE060E08DE03B
:102CA00092E00E94B2100BE424E64BE460E08DE079
:102CB00092E00E94B21008E02EE241E06BE188E66B
:102CC00095E00E9431100E9473150E94631C22E05F
:102CD000C22ED12CE12CF12CA70196010E94BB1C25
:102CE0000E943A1E20E030E040E05FE30E941E1D9B
:102CF00020E030E040E05FE30E94EF1E60933C0183
:102D000070933D0180933E0190933F010E94631CAC
:102D1000A70196010E94BB1C0E943A1E20E030E0F1
:102D200040E05FE30E941E1D6093380170933901FB
:102D300080933A0190933B0184E690E090934101A7
:102D4000809340010F91FF90EF90DF90CF90089516
:102D50000F93CF93C82F0E94931201E02BE344E618
:102D600065E180E00E94F70F88EB98E0CC2311F03A
:102D700088ED9BE000E52AE440E06DE00E94311020
:102D800080E197E20E94C507CF910F910C94E31563
:102D90001F920F920FB60F9211242F933F938F9390
:102DA0009F93AF93BF938091550190915601A0914D
:102DB0005701B09158013091540123E0230F2D3772
:102DC00058F50196A11DB11D209354018093550122
:102DD00090935601A0935701B093580180915001F0
:102DE00090915101A0915201B09153010196A11D02
:102DF000B11D8093500190935101A0935201B09363
:102E00005301BF91AF919F918F913F912F910F905F
:102E10000FBE0F901F90189526E8230F0296A11D54
:102E2000B11DD2CF1F920F920FB60F9211242F9384
:102E30003F934F935F936F937F938F939F93AF9342
:102E4000BF93EF93FF9380E791E00E94FE0CFF9108
:102E5000EF91BF91AF919F918F917F916F915F9112
:102E60004F913F912F910F900FBE0F901F9018958B
:102E70001F920F920FB60F9211242F938F939F934F
:102E8000EF93FF93E0918001F09181018081E091C7
:102E90008601F091870182FD1BC09081809189019C
:102EA0008F5F8F7320918A01821741F0E091890131
:102EB000F0E0E059FE4F958F80938901FF91EF91EB
:102EC0009F918F912F910F900FBE0F901F9018958B
:102ED0008081F4CF1F920F920FB60F9211242F937F
:102EE0003F934F935F936F937F938F939F93AF9392
:102EF000BF93EF93FF93E0913001F0913101099579
:102F0000FF91EF91BF91AF919F918F917F916F91C1
:102F10005F914F913F912F910F900FBE0F901F9097
:102F20001895E0E7F1E01382128288EE93E0A0E0CA
:102F3000B0E084839583A683B7838EE091E091838C
:102F4000808385EC90E09587848784EC90E0978778
:102F5000868780EC90E0918B808B81EC90E0938B66
:102F6000828B82EC90E0958B848B86EC90E0978B43
:102F7000868B118E128E138E148EEDE0F2E013828A
:102F8000128280E291E091838083138A128A158AEB
:102F9000148A178A168A118E108E138E128E80E86C
:102FA000848380E4858385E0868388E0878382E06C
:102FB000808794E091878287838714861586178699
:102FC00081E08687808B83E0818B0895789484B537
:102FD000826084BD84B5816084BD85B5826085BD15
:102FE00085B5816085BD80916E00816080936E00A3
:102FF0001092810080918100826080938100809195
:103000008100816080938100809180008160809345
:1030100080008091B10084608093B1008091B00005
:1030200081608093B00080917A00846080937A0000
:1030300080917A00826080937A0080917A0081602A
:1030400080937A0080917A00806880937A00109251
:10305000C100E0918001F091810182E08083E091E4
:103060007C01F0917D011082E0917E01F0917F0161
:103070008FEC808310928801E0918401F0918501AA
:1030800086E08083E0918201F091830180818061FC
:103090008083E0918201F091830180818860808348
:1030A000E0918201F0918301808180688083E091CA
:1030B0008201F091830180818F7D808387E39FE08F
:1030C000909322028093210210921E02809113029B
:1030D000843608F484E680931102809114028035CE
:1030E00008F480E58093120280EC93E00E94621F56
:1030F00090936B0180936A01009709F46EC010925F
:103100006C0110926D0190936901809368018CE0CD
:103110008093630180E58093620110925B011092BD
:103120005C0110925D0110925E0182E08093650166
:103130008093660180E698E090933301809332019A
:10314000579A219A5F98299A239A82EC809380005B
:1031500089E18093810084E280935F0187EC809312
:10316000640187E08093670188E391E090936101B7
:10317000809360018FEF93E09093870080938600A7
:103180008AE490E0909389008093880089E391E03D
:1031900090935A018093590184E09CE0909331010F
:1031A0008093300181E080936F00789410926C01DD
:1031B00010926D01E0916801F091690190916301B5
:1031C000809162019F01989F200D311D1124C9013A
:1031D000E817F90711F01192FBCF88EE93E00E94F7
:1031E000C507EEE2FFE02491EAE1FFE08491882345
:1031F000C1F090E0880F991FFC01EE5FF04FC59180
:10320000D491FC01E850F14FA591B4919FB7F89487
:103210003881822F809583238883EC91E22BEC9375
:103220009FBF0E94E31510E484E6282E312C1093F2
:103230007C0080917A00806480937A0080917A008B
:1032400086FDFCCF8091780060917900762F682F01
:10325000603171050CF40AC1673E710514F066EE29
:1032600070E06051710939F1072E000C880B990B41
:103270000E943A1E29E930E44FEE5EE30E94EF1E01
:103280006B017C0120E030E0A9010E94EA1E20E0F1
:1032900030E040E05FE387FDE4C0C701B6010E9473
:1032A0001F1D0E94021E70E0662309F4DFC060FF4C
:1032B00002C06F5F7F4F84E690E0861B970BBC01D6
:1032C000072E000C880B990B0E943A1E27E936E95D
:1032D00046E95FE30E94EF1E20E030E040E050E46A
:1032E0000E941F1D0E94021E6B0180914E01909151
:1032F0004F018C159D0559F04EE0480F00E02AE47F
:1033000067E40E94F70FD0924F01C0924E01609186
:103310004A0170914B0180914C0190914D010E94A6
:10332000021E862F4EE0460F00E02FE06CE00E9468
:10333000F70F60914601709147018091480190918B
:1033400049010E94021EC62F609142017091430103
:1033500080914401909145010E94021E862F24E035
:103360002C0F44E0460F6C2F0E94F70F8091400114
:1033700090914101009709F054C2C0904A01D09049
:103380004B01E0904C01F0904D0120E030E040EA2C
:1033900050E4C701B6010E941F1D2B013C01809023
:1033A000420190904301A0904401B0904501A501D5
:1033B00094010E94EA1E18160CF05BC020E030E079
:1033C000A901C701B6010E94EA1E18160CF051C0EF
:1033D00020E030E040E85EE3C701B6010E941E1D18
:1033E00060934A0170934B0180934C0190934D017F
:1033F000C0903C01D0903D01E0903E01F0903F0133
:10340000A7019601C501B4010E941F1D4B015C017B
:1034100020E030E042EC52E40E94EA1E87FD44C006
:1034200080E090E0A2ECB2E48093420190934301EB
:10343000A0934401B0934501F7FAF094F7F8F094A3
:10344000C0923C01D0923D01E0923E01F0923F01DA
:1034500044E650E060E070E088EE93E00E94120ED7
:1034600035C0C701B6010E941E1D1BCF70E060E091
:1034700022CFA5019401C301B2010E948B1D87FFD9
:10348000B7CF20E030E042EB52E4C701B6010E9422
:103490008B1D87FFADCF20E030E040E85EE3C70141
:1034A000B6010E941F1D9CCF20E030E0A901C5019C
:1034B000B4010E948B1D18160CF0F2C080924201DC
:1034C00090924301A0924401B0924501809038014E
:1034D00090903901A0903A01B0903B0120914601B3
:1034E000309147014091480150914901C501B40113
:1034F0000E941F1D6B017C01C0924601D0924701C2
:10350000E0924801F092490120E030E048E852E4BE
:103510000E94EA1E18160CF0CCC020E030E04EE805
:1035200052E4C701B6010E948B1D87FFC2C020E094
:1035300030E0A901C501B4010E94EA1E18160CF082
:10354000B8C080914E0190914F010E94D90E809198
:10355000400190914101892B09F077C060914601AB
:103560007091470180914801909149010E94021E8B
:10357000C62F609142017091430180914401909166
:1035800045010E94021E862F22E02C0F42E0460FCA
:1035900001E06C2F0E94F70F609146017091470186
:1035A00080914801909149010E94021E062FF62E3B
:1035B000C4E0C60F609142017091430180914401C3
:1035C000909145010E94021EE62ED4E0D60FD61738
:1035D00010F4ED2ED62FCF1510F4FC2EC02FDD24C5
:1035E000D394DD0EDE1880911202F81640F400E04C
:1035F0002D2D4F2D6E2D8DE092E00E94D70F8091E2
:103600001202C81740F400E02D2D4C2F6E2D8DE0D6
:1036100092E00E94D70FCF5FCF1980911102E81678
:1036200040F400E02C2F4F2D6E2D8DE092E00E9493
:10363000921080911102D81740F400E02C2F4F2DEA
:103640006D2F8DE092E00E94921060914A0170917E
:103650004B0180914C0190914D010E94021E862FDA
:103660004CE0460F0EEF2EE06CE00E94F70F8091C9
:103670004E014CE0480F29E467E40E94F70F8AE00E
:1036800090E00E94C507A0E0B0E0AB2B09F4CFCDDD
:103690000E94EA0C882309F4CACD0E940000C7CD1D
:1036A0001092420110924301109244011092450180
:1036B000C3CE20E030E040E751E4C701B6010E94EC
:1036C0008B1D87FF1FC020E030E040E351E4C701BD
:1036D000B6010E94EA1E1816ACF420E030E0A90101
:1036E000C501B4010E948B1D87FF0CC060914A0187
:1036F00070914B0180914C0190914D010E94021EEE
:10370000CB0123CF20E030E04EE852E4C701B60100
:103710000E94EA1E20E030E040E351E487FF5EC0F3
:10372000C701B6010E948B1D18160CF410CF8091B2
:1037300036019091370101969093370180933601BD
:1037400044E650E060E070E088E592E00E94120EEE
:103750000E9473158091360190913701459719F4B5
:1037600081E00E94A81680E090E0A8E2B2E4809395
:10377000460190934701A0934801B093490180E02E
:1037800090E0A0E4B2E48093420190934301A093BF
:103790004401B09345010E94631C22E030E040E008
:1037A00050E00E94BB1C0E943A1E20E030E040E046
:1037B0005FE30E941E1D20E030E040E05FE30E94D6
:1037C000EF1E60933C0170933D0180933E01909306
:1037D0003F013092410120924001B9CEC701B601AC
:1037E0000E948B1D18160CF0A2CF8091340190918D
:1037F00035010196909335018093340144EF51E0F7
:1038000060E070E084E690E00E94120E0E94731562
:103810008091340190913501459709F0A4CF80E063
:10382000A0CF0197909341018093400190CE8F9259
:103830009F92AF92BF92CF92DF92EF92FF92CF937F
:10384000DF93EC01688179818A819B816115710523
:103850008105910521F464E279ED8BE597E02DE196
:1038600033EF41E050E00E94BB1C49015A019B012B
:10387000AC01A7EAB1E40E94DA1C6B017C01ACEE5A
:10388000B4EFA50194010E94E81CC60ED71EE81EE5
:10389000F91EF7FE06C081E0C81AD108E10880E8E9
:1038A000F80AC882D982EA82FB82C701B6019F77F3
:1038B000DF91CF91FF90EF90DF90CF90BF90AF90CE
:1038C0009F908F9008958F929F92AF92BF92CF92C8
:1038D000DF92EF92FF92609100017091010180915F
:1038E000020190910301611571058105910521F493
:1038F00064E279ED8BE597E02DE133EF41E050E0B4
:103900000E94BB1C49015A019B01AC01A7EAB1E42A
:103910000E94DA1C6B017C01ACEEB4EFA5019401AE
:103920000E94E81CC60ED71EE81EF91EF7FE06C050
:1039300081E0C81AD108E10880E8F80AC0920001C5
:10394000D0920101E0920201F0920301C701B60199
:103950009F77FF90EF90DF90CF90BF90AF909F90B8
:103960008F9008956093000170930101809302018C
:10397000909303010895052E97FB1EF400940E9476
:10398000D21C57FD07D00E94ED1C07FC03D04EF45B
:103990000C94D21C50954095309521953F4F4F4F38
:1039A0005F4F089590958095709561957F4F8F4FEB
:1039B0009F4F08950E940F1DA59F900DB49F900DDD
:1039C000A49F800D911D11240895B7FF0C94DA1C5B
:1039D0000E94DA1C821B930B0895A1E21A2EAA1BE7
:1039E000BB1BFD010DC0AA1FBB1FEE1FFF1FA217AF
:1039F000B307E407F50720F0A21BB30BE40BF50BAC
:103A0000661F771F881F991F1A9469F76095709534
:103A1000809590959B01AC01BD01CF010895A29FB7
:103A2000B001B39FC001A39F700D811D1124911D92
:103A3000B29F700D811D1124911D08955058BB2710
:103A4000AA270E94361D0C94B01E0E94A21E38F0B8
:103A50000E94A91E20F039F49F3F19F426F40C941B
:103A60009F1E0EF4E095E7FB0C94991EE92F0E942F
:103A7000C11E58F3BA17620773078407950720F031
:103A800079F4A6F50C94E31E0EF4E0950B2EBA2FF4
:103A9000A02D0B01B90190010C01CA01A001112454
:103AA000FF27591B99F0593F50F4503E68F11A1600
:103AB000F040A22F232F342F4427585FF3CF469591
:103AC00037952795A795F0405395C9F77EF41F16B3
:103AD000BA0B620B730B840BBAF09150A1F0FF0F7D
:103AE000BB1F661F771F881FC2F70EC0BA0F621F69
:103AF000731F841F48F4879577956795B795F79559
:103B00009E3F08F0B0CF9395880F08F09927EE0FED
:103B10009795879508950E94751E08F481E0089591
:103B20000E94A41D0C94B01E0E94A91E58F00E9471
:103B3000A21E40F029F45F3F29F00C94991E511108
:103B40000C94E41E0C949F1E0E94C11E68F39923DE
:103B5000B1F3552391F3951B550BBB27AA27621789
:103B60007307840738F09F5F5F4F220F331F441F96
:103B7000AA1FA9F335D00E2E3AF0E0E832D09150CA
:103B80005040E695001CCAF72BD0FE2F29D0660FB7
:103B9000771F881FBB1F261737074807AB07B0E8FA
:103BA00009F0BB0B802DBF01FF2793585F4F3AF000
:103BB0009E3F510578F00C94991E0C94E41E5F3FD3
:103BC000E4F3983ED4F3869577956795B795F79586
:103BD0009F5FC9F7880F911D9695879597F908956E
:103BE000E1E0660F771F881FBB1F6217730784070A
:103BF000BA0720F0621B730B840BBA0BEE1F88F719
:103C0000E09508950E94091E6894B1110C94E41E79
:103C100008950E94C91E88F09F5798F0B92F9927E0
:103C2000B751B0F0E1F0660F771F881F991F1AF0A7
:103C3000BA95C9F714C0B13091F00E94E31EB1E00B
:103C400008950C94E31E672F782F8827B85F39F00A
:103C5000B93FCCF3869577956795B395D9F73EF440
:103C600090958095709561957F4F8F4F9F4F0895E8
:103C7000E89409C097FB3EF4909580957095619506
:103C80007F4F8F4F9F4F9923A9F0F92F96E9BB27BC
:103C90009395F695879577956795B795F111F8CF38
:103CA000FAF4BB0F11F460FF1BC06F5F7F4F8F4FA3
:103CB0009F4F16C0882311F096E911C0772321F099
:103CC0009EE8872F762F05C0662371F096E8862F31
:103CD00070E060E02AF09A95660F771F881FDAF788
:103CE000880F9695879597F90895990F0008550FB5
:103CF000AA0BE0E8FEEF16161706E807F907C0F072
:103D000012161306E407F50798F0621B730B840B79
:103D1000950B39F40A2661F0232B242B252B21F453
:103D200008950A2609F4A140A6958FEF811D811DF3
:103D3000089597F99F6780E870E060E008959FEF2D
:103D400080EC089500240A94161617061806090632
:103D5000089500240A941216130614060506089501
:103D6000092E0394000C11F4882352F0BB0F40F489
:103D7000BF2B11F460FF04C06F5F7F4F8F4F9F4FC9
:103D8000089557FD9058440F551F59F05F3F71F04B
:103D90004795880F97FB991F61F09F3F79F08795B2
:103DA0000895121613061406551FF2CF4695F1DF3B
:103DB00008C0161617061806991FF1CF86957105CB
:103DC000610508940895E894BB2766277727CB01FF
:103DD00097F908950E94751E08F48FEF08950E94C8
:103DE000021F0C94B01E0E94A21E38F00E94A91E51
:103DF00020F0952311F00C94991E0C949F1E112411
:103E00000C94E41E0E94C11E70F3959FC1F3950FA0
:103E100050E0551F629FF001729FBB27F00DB11D4E
:103E2000639FAA27F00DB11DAA1F649F6627B00DDE
:103E3000A11D661F829F2227B00DA11D621F739FC7
:103E4000B00DA11D621F839FA00D611D221F749FD5
:103E50003327A00D611D231F849F600D211D822F1C
:103E6000762F6A2F11249F5750409AF0F1F0882343
:103E70004AF0EE0FFF1FBB1F661F771F881F915070
:103E80005040A9F79E3F510580F00C94991E0C9468
:103E9000E41E5F3FE4F3983ED4F3869577956795EB
:103EA000B795F795E7959F5FC1F7FE2B880F911D9A
:103EB0009695879597F90895EE0FFF1F0590F49159
:103EC000E02D09940F931F93CF93DF9382309105D8
:103ED00010F482E090E0E0912B02F0912C0230E0AF
:103EE00020E0B0E0A0E0309799F42115310509F405
:103EF0004AC0281B390B24303105D8F58A819B81B3
:103F00006115710589F1FB0193838283FE0111C064
:103F1000408151810281138148175907E0F0481709
:103F2000590799F4109761F012960C931297139613
:103F30001C933296CF01DF91CF911F910F9108957D
:103F400000932B0210932C02F4CF2115310551F070
:103F50004217530738F0A901DB019A01BD01DF01C7
:103F6000F801C1CFEF01F9CF90932C0280932B027F
:103F7000CDCFFE01E20FF31F8193919322503109BF
:103F800039832883D7CF2091290230912A02232B0D
:103F900041F4209106013091070130932A022093C9
:103FA000290220910401309105012115310541F4C8
:103FB0002DB73EB74091080150910901241B350BE4
:103FC000E0912902F0912A02E217F307A0F42E1BD8
:103FD0003F0B2817390778F0AC014E5F5F4F24176D
:103FE000350748F04E0F5F1F50932A024093290275
:103FF000819391939FCFF0E0E0E09CCFCF93DF934C
:104000000097E9F0FC01329713821282A0912B02F3
:10401000B0912C02ED0130E020E01097A1F4208156
:104020003181820F931F2091290230912A02281793
:10403000390709F061C0F0932A02E0932902DF9169
:10404000CF910895EA01CE17DF07E8F54A815B8139
:104050009E0141155105B1F7E901FB83EA834991BE
:104060005991C40FD51FEC17FD0761F48081918130
:104070000296840F951FE901998388838281938139
:104080009B838A83F0E0E0E012968D919C911397D8
:104090000097B9F52D913C911197CD010296820FB1
:1040A000931F2091290230912A022817390739F6E7
:1040B000309751F510922C0210922B02B0932A02E5
:1040C000A0932902BCCFD383C28340815181840F46
:1040D000951FC817D90761F44E5F5F4F888199819A
:1040E000480F591F518340838A819B819383828328
:1040F0002115310509F0B0CFF0932C02E0932B028B
:104100009ECFFD01DC01C0CF13821282D7CFF8947D
:02411000FFCFDF
:104112000100000000002D02800000000000200DC0
:10412200800CAD0C6D0DDE0CBC0CD00C0000000040
:0A4132000713800CEA14E9143000B2
:00000001FF
